:020000040800F2
:100000000010002085030008D9030008D903000868
:1000100000000000000000000000000000000000E0
:10002000000000000000000000000000D9030008EC
:100030000000000000000000D9030008D9030008F8
:10004000D9030008D9030008D9030008D903000820
:10005000D9030008D9030008D9030008D903000810
:10006000D9030008D9030008D9030008D903000800
:10007000D9030008D9030008D9030008D9030008F0
:10008000D9030008D903000800000000D9030008C4
:10009000D9030008D9030008D9030008D9030008D0
:1000A000D9030008D9030008D9030008D9030008C0
:1000B000D903000800000000D90300080000000078
:0400C0005FF808F1EC
:1000C40010B5064C2378002B07D1054B002B02D02A
:1000D400044800E000BF0123237010BD4C0400203D
:1000E40000000000F8080008084B10B5002B03D0EE
:1000F4000749084800E000BF07480368002B00D107
:1001040010BD064B002BFBD09847F9E70000000018
:1001140050040020F80800084404002000000000F7
:10012400164B002B00D1144B9D46402292029A1A82
:10013400924600218B460F461348144A121A00F0C7
:100144002FFA0F4B002B00D098470E4B002B00D0FA
:1001540098470020002104000D000D48002802D01B
:100164000C4800F0FBFA00F0F7F92000290000F039
:10017400A9F800F0E1F9C046000008000000000002
:1001840000000000000000004C0400208C0400204B
:100194006107000871070008040900080000002036
:1001A4003C0400204C0400208C040020002243085E
:1001B4008B4274D303098B425FD3030A8B4244D32B
:1001C400030B8B4228D3030C8B420DD3FF2209026D
:1001D40012BA030C8B4202D31212090265D0030B2C
:1001E4008B4219D300E0090AC30B8B4201D3CB0322
:1001F400C01A5241830B8B4201D38B03C01A524164
:10020400430B8B4201D34B03C01A5241030B8B4265
:1002140001D30B03C01A5241C30A8B4201D3CB0250
:10022400C01A5241830A8B4201D38B02C01A524135
:10023400430A8B4201D34B02C01A5241030A8B4238
:1002440001D30B02C01A5241CDD2C3098B4201D350
:10025400CB01C01A524183098B4201D38B01C01ACE
:10026400524143098B4201D34B01C01A5241030945
:100274008B4201D30B01C01A5241C3088B4201D3F4
:10028400CB00C01A524183088B4201D38B00C01AA1
:10029400524143088B4201D34B00C01A5241411AC8
:1002A40000D20146524110467047FFE701B50020D5
:1002B40000F006F802BDC0460029F7D076E7704783
:1002C4007047C04680B582B000AF00F00FF800F070
:1002D4003BF800237B6002E07B6801337B607B6832
:1002E400014A9342F8DDF2E7FEFF000080B500AF5B
:1002F400134B134A52698021C9020A435A61114BB4
:10030400104A1268C0218A431A600E4B0D4A1268C3
:1003140040210A431A600B4B0A4A526808218A4357
:100324005A60084B074A9268C0218A439A60054B79
:10033400044AD268C0218A43DA60C046BD4680BD03
:10034400001002400004004880B582B000AF0A4BA0
:1003540008229A6100237B6002E07B6801337B60A2
:100364007B68064A9342F8DD034B802212039A61AC
:10037400C046BD4602B080BD00040048FEFF000038
:10038400A0E70E488546002103E00D4B5B5843501F
:1003940004310C480C4B42189A42F6D30B4A02E043
:1003A4000023136004320A4B9A42F9D300F014F884
:1003B40000F0D2F8FFF786FFFEE7000000100020EF
:1003C40004090008000000203C0400204C04002024
:1003D4008C040020FEE7000080B500AF1A4B1A4AD7
:1003E400126801210A431A60174B174A52681749C9
:1003F4000A405A60144B144A126815490A401A609C
:10040400114B114A126813490A401A600E4B0E4AE6
:10041400526811490A405A600B4B0B4AD26A0F21A9
:100424008A43DA62084B084A126B0C490A401A6381
:10043400054B054A526B01218A435A63024B002241
:100444009A60C046BD4680BD001002400CB8FF084B
:10045400FFFFF6FEFFFFFBFFFFFFC0FFECFEFFFF09
:1004640080B584B000AF0023FB600023BB60002391
:100474007B6000233B602B4B5B680C221340FB60CA
:10048400FB68042B07D0082B09D0002B33D1264B53
:10049400264A1A6033E0244B244A1A602FE0214B89
:1004A4005A68F0239B031340BB601E4B5A68802399
:1004B4005B0213407B60BB689B0C0233BB60194B2F
:1004C400DB6A0F22134001333B607A6880235B02AE
:1004D4009A420AD139681548FFF768FE03001A00EA
:1004E400BB685A43104B1A6009E0BB68104A5A4370
:1004F4000D4B1A6003E00C4B0C4A1A60C046094BC2
:100504005B681B090F2213400A4AD35CFB60064B4D
:100514001A68FB68DA40044B1A60C046BD4604B052
:1005240080BDC046001002400400002000127A0082
:1005340000093D00C408000810B50021040000F0C3
:1005440085F8044B1868C36B002B00D09847200033
:1005540000F0B4F9DC08000870B50D4E0D4D002410
:10056400AD1BAD1005D0A300F35801349847A54244
:10057400F9D100F0B3F9084E084D0024AD1BAD10BD
:1005840005D0A300F35801349847A542F9D170BDB2
:100594000000000000000000000000000000000057
:1005A400F0B5830743D0541E002A3FD0CEB20200D8
:1005B400032502E01A00013C38D3531C16702B4269
:1005C400F8D1032C2AD9FF220A40150215432A0424
:1005D40015430F2C14D927001A00103F3E09013689
:1005E40036019E19156055609560D56010329642AB
:1005F400F8D10F2297431037DB191440032C0DD97F
:100604001A00271FBE080136B6009E1920C2B24246
:10061400FCD1032297430437DB191440002C05D086
:10062400C9B21C19197001339C42FBD1F0BD1400EE
:100634000300C6E7034B10B5002B02D0024800F0BC
:100644008DF810BD0000000071070008F0B5DE460B
:1006540057464E464546E0B53D4B85B01B68019074
:10066400180002930F0000F0A5F83A4B1B680293A0
:100674004933FF330393A422029B52009E58002E59
:100684004ED0039B9946C4235B00984604339A4694
:100694007468B044A5007519B244013C08D52DE036
:1006A4006B1DFF331B689F4204D0043D013C25D3DE
:1006B400002FF5D173686A68013BA3423DD0002343
:1006C4006B60002AF1D0736841469B460123A34026
:1006D400096819422FD05146096819422FD12B00BD
:1006E400843319680198904773685B45C3D14B46BE
:1006F4001B68B342BFD1043D013CD9D2164B002B39
:100704000ED07368002B1FD13368002B08D04A46E3
:100714003000136000E000BF4B461E68002EB2D1CB
:100724000B4B186800F04EF805B03CBC9046994657
:10073400A246AB46F0BD9047D6E77460C1E72B00F4
:10074400843318689047CFE7B1463668E6E7C04679
:1007540038040020DC0800080000000010B5010087
:1007640000230022002000F02FF810BD70B5094BC3
:10077400094CE41AA41009D0084AA518AD00ED18D4
:100784002B68013C9847043D002CF9D100F0ACF8EB
:1007940070BDC0460000000000000000FFFFFF3FE6
:1007A4007047C0467047C0467047C0467047C04651
:1007B4007047C0467047C04601207047012070470B
:1007C4007047C0467047C046F0B54E464546DE46C3
:1007D4005746E0B5364D83B00600286898460F00AA
:1007E4009146FFF7E7FF334B1C68A4235B00E058F6
:1007F400002852D043681F2B13DC5A1C0192002E90
:1008040028D1019A02339B0042601F502868FFF7E9
:10081400D9FF002003B03CBC90469946A246AB46A3
:10082400F0BD254B002B3DD0C820400000E000BFA8
:10083400002837D0A42200235200A158436001604D
:10084400A05040328350043283500133019300237B
:10085400002ED6D09A00924682444A4688215446B5
:100864006250C4225200914681444A4687399940D5
:1008740012688B460A4394464A46614611608422B4
:1008840041465200A150022EBBD102005C468D327B
:10089400FF3211680C431460B3E720004D30FF3081
:1008A400E050A7E72868FFF78DFF01204042B1E739
:1008B40038040020DC08000800000000FEE7C04601
:1008C40000000000000000000102030406070809FC
:0C08D400000000000102030410000020DE
:0C08E000F8B5C046F8BC08BC9E46704746
:0C08EC00F8B5C046F8BC08BC9E4670473A
:0408F80000000000FC
:0808FC0028F8FF7F0100000055
:100904000000000000127A00100000200000000027
:1009140000000000FC02002064030020CC0300203F
:1009240000000000000000000000000000000000C3
:1009340000000000000000000000000000000000B3
:1009440000000000000000000000000000000000A3
:100954000000000000000000000000000000000093
:100964000000000000000000000000000000000083
:100974000000000000000000000000000000000073
:100984000000000000000000000000000000000063
:100994000000000000000000000000000000000053
:1009A4000000000000000000000000000000000043
:1009B4000000000000000000010000000000000032
:1009C4000E33CDAB34126DE6ECDE05000B000000F7
:1009D4000000000000000000000000000000000013
:1009E4000000000000000000000000000000000003
:1009F40000000000000000000000000000000000F3
:100A040000000000000000000000000000000000E2
:0C0D340000000000000000006804002027
:040D4000ED000008BA
:040D4400C5000008DE
:040D480000000000A7
:040D4C00390600085C
:040000050800038567
:00000001FF
