:020000040800F2
:1000000000100020CD050008210600082106000888
:1000100000000000000000000000000000000000E0
:1000200000000000000000000000000021060008A1
:100030000000000000000000210600082106000862
:1000400021060008210600082106000821060008F4
:1000500021060008210600082106000821060008E4
:1000600021060008210600082106000821060008D4
:1000700021060008210600082106000821060008C4
:1000800021060008210600080000000021060008E3
:1000900021060008210600082106000821060008A4
:1000A0002106000821060008210600082106000894
:1000B00021060008000000002106000800000000E2
:0400C0005FF808F1EC
:1000C80010402DE928409FE50030D4E5000053E3B7
:1000D8000500001A1C309FE5000053E318009F1527
:1000E80000F020130130A0E30030C4E51040BDE863
:1000F8001EFF2FE14C040020000000009C0B0008AC
:1001080060309FE5000053E30900000A58009FE5AE
:1001180010402DE954109FE500F020E350009FE5C2
:10012800003090E5000053E30900001A1040BDE8D4
:100138001EFF2FE138009FE5003090E5000053E3F3
:100148001EFF2F012C309FE5000053E31EFF2F01F7
:1001580013FF2FE11C309FE5000053E3F2FFFF0A75
:100168001040BDE813FF2FE1000000009C0B0008C1
:10017800500400204404002000000000F0309FE5F7
:10018800000053E3E4309F0503D0A0E100200FE115
:100198000F0012E31500000AD1F021E303D0A0E11B
:1001A80001AA4DE20A30A0E1D7F021E303D0A0E193
:1001B800013A43E2DBF021E303D0A0E1013A43E254
:1001C800D2F021E303D0A0E1023A43E2D3F021E3E5
:1001D80003D0A0E1023943E2FF30C3E3FF3CC3E3AD
:1001E800043003E5002053E9C02082E302F021E156
:1001F80001A843E20010B0E301B0A0E10170A0E162
:1002080078009FE578209FE5002052E02F0100EB61
:1002180060309FE5000053E30100000A0FE0A0E111
:1002280003F0A0E150309FE5000053E30100000A0D
:100238000FE0A0E103F0A0E10000B0E30010B0E39C
:100248000040B0E10150B0E138009FE5000050E304
:100258000100000A30009FE5CE0100EBFB0000EB37
:100268000400B0E10510B0E1320200EBEA0000EB57
:10027800000008000000000000000000000000006E
:100288004C0400208C040020A0090008C0090008C4
:1002980080B582B000AF00F021F80E4B08229A61B9
:1002A80000237B6002E07B6801337B607B680A4A3D
:1002B8009342F8DD074B802212039A6100233B60CA
:1002C80002E03B6801333B603B68034A9342F8DD38
:1002D800E3E7C04600040048FEFF010080B500AF18
:1002E800134B134A52698021C9020A435A61114BC0
:1002F800104A1268C0218A431A600E4B0D4A1268D0
:1003080040210A431A600B4B0A4A526808218A4363
:100318005A60084B074A9268C0218A439A60054B85
:10032800044AD268C0218A43DA60C046BD4680BD0F
:100338000010024000040048A80B0008000000203C
:100348003C0400204C0400208C04002080B500AF41
:100358001A4B1A4A126801210A431A60174B174AA6
:10036800526817490A405A60144B144A12681549D2
:100378000A401A60114B114A126813490A401A6060
:100388000E4B0E4A526811490A405A600B4B0B4AF1
:10039800D26A0F218A43DA62084B084A126B0C4969
:1003A8000A401A63054B054A526B01218A435A6376
:1003B800024B00229A60C046BD4680BD0010024034
:1003C8000CB8FF08FFFFF6FEFFFFFBFFFFFFC0FFB3
:1003D800ECFEFFFF80B584B000AF0023FB60002374
:1003E800BB6000237B6000233B602B4B5B680C22C7
:1003F8001340FB60FB68042B07D0082B09D0002BA7
:1004080033D1264B264A1A6033E0244B244A1A601B
:100418002FE0214B5A68F0239B031340BB601E4B0F
:100428005A6880235B0213407B60BB689B0C0233D5
:10043800BB60194BDB6A0F22134001333B607A68BB
:1004480080235B029A420AD13968154800F02EF8D9
:1004580003001A00BB685A43104B1A6009E0BB68D6
:10046800104A5A430D4B1A6003E00C4B0C4A1A60B1
:10047800C046094B5B681B090F2213400A4AD35C2C
:10048800FB60064B1A68FB68DA40044B1A60C046EA
:10049800BD4604B080BDC0460010024004000020E4
:1004A80000127A0000093D00500B0008012051E2BB
:1004B8001EFF2F013600003A010050E12200009A89
:1004C800020011E12300000A0E0211E38111A001CC
:1004D8000830A0030130A013010251E3000051319C
:1004E8000112A0310332A031FAFFFF3A020151E3B1
:1004F800000051318110A0318330A031FAFFFF3A5A
:100508000020A0E3010050E10100402003208221E7
:10051800A10050E1A1004020A3208221210150E147
:100528002101402023218221A10150E1A101402085
:10053800A3218221000050E32332B0112112A0111F
:10054800EFFFFF1A0200A0E11EFF2FE10100A00348
:100558000000A0131EFF2FE1010851E32118A0217C
:100568001020A0230020A033010C51E32114A02166
:1005780008208222100051E32112A02104208222A7
:10058800040051E303208282A12082903002A0E17E
:100598001EFF2FE1000050E30000E013070000EA0F
:1005A800000051E3FAFFFF0A03402DE9BEFFFFEB0D
:1005B8000640BDE8920003E0031041E01EFF2FE172
:1005C8001EFF2FE164E60E488546002103E00D4B2F
:1005D8005B58435004310C480C4B42189A42F6D3EE
:1005E8000B4A02E00023136004320A4B9A42F9D303
:1005F800FFF7ACFE00F02CF8FFF74AFEFEE700001C
:1006080000100020A80B0008000000203C04002077
:100618004C0400208C040020FEE7000010402DE967
:100628000010A0E30040A0E1770000EB18309FE540
:10063800000093E53C3090E5000053E30FE0A01183
:1006480013FF2F110400A0E1380100EB680B00082C
:1006580070402DE964609FE564509FE5056046E0C1
:100668004661B0E10040A0130500000A014084E2A1
:10067800043095E40FE0A0E113FF2FE1040056E1F8
:10068800F9FFFF1A3C609FE53C509FE5056046E096
:10069800330100EB4661B0E10040A0130500000AF9
:1006A800014084E2043095E40FE0A0E113FF2FE15C
:1006B800040056E1F9FFFF1A7040BDE81EFF2FE164
:1006C8000000000000000000000000000000000022
:1006D800030010E34000000A000052E3012042E258
:1006E8001EFF2F01FFC001E20030A0E1020000EA76
:1006F800012042E2010072E31EFF2F0101C0C3E4A2
:10070800030013E3F9FFFF1A030052E32A00009ADB
:1007180010402DE9FFE001E20EE48EE10F0052E304
:100728000EE88EE11000009A0240A0E110C083E2BA
:10073800104044E20F0054E310E00CE50CE00CE537
:1007480008E00CE504E00CE510C08CE2F7FFFF8A36
:1007580010C042E20FC0CCE30F2002E210C08CE2CE
:10076800030052E30C3083E00A00009A0340A0E142
:1007780002C0A0E104C04CE203005CE304E084E4AE
:10078800FBFFFF8A04C042E203C0CCE304C08CE252
:100798000C3083E0032002E2000052E30400000A68
:1007A800FF1001E2022083E00110C3E4030052E1DC
:1007B800FCFFFF1A1040BDE81EFF2FE1000052E3C6
:1007C8001EFF2F01FF1001E2022083E00110C3E4A5
:1007D800030052E1FCFFFF1A1EFF2FE10030A0E1E9
:1007E800C8FFFFEA18309FE5000053E31EFF2F0102
:1007F80010402DE90C009FE5660000EB1040BDE8B5
:100808001EFF2FE100000000C0090008F04F2DE98D
:100818000190A0E300A0A0E36C319FE514D04DE265
:1008280004008DE5000093E50160A0E1780000EB8D
:1008380058319FE5003093E508308DE5523F83E25B
:100848000C308DE508309DE5487193E5000057E3CD
:100858003D00000A0C809DE508B0A0E1044097E542
:10086800015054E201408452044187500700005A65
:10087800260000EA003194E5030056E10500000A6D
:10088800015045E2010075E3044044E21F00000AFC
:10089800000056E3F6FFFF1A043097E5013043E203
:1008A800050053E1003094E50450870500A0841545
:1008B800000053E3F1FFFF0A881197E51925A0E12D
:1008C800010012E1048097E52500000A8C1197E5E4
:1008D800010012E12500001A801094E504009DE54E
:1008E8000FE0A0E113FF2FE1043097E5080053E182
:1008F800D3FFFF1A00309BE5070053E1D0FFFF1A32
:10090800015045E2010075E3044044E2DFFFFF1AAD
:100918007C309FE5000053E30B00000A043097E5A4
:10092800000053E31500001A003097E5000053E378
:100938000500000A0700A0E100308BE500F020E385
:1009480000709BE5000057E3C3FFFF1A38309FE5AE
:10095800000093E5340000EB14D08DE2F04FBDE8C1
:100968001EFF2FE10FE0A0E113FF2FE1DDFFFFEAFB
:10097800800094E50FE0A0E113FF2FE1D9FFFFEA23
:1009880007B0A0E1007097E5EDFFFFEA380400200A
:10099800680B0008000000000030A0E310402DE9BB
:1009A8000010A0E10320A0E10300A0E11F0000EB7C
:1009B8001040BDE81EFF2FE170402DE934509FE53F
:1009C80034409FE5054044E04441B0E104518510BE
:1009D8000500000A014044E2043035E50FE0A0E1DB
:1009E80013FF2FE1000054E3F9FFFF1A620000EB48
:1009F8007040BDE81EFF2FE100000000000000006D
:100A08001EFF2FE11EFF2FE11EFF2FE11EFF2FE12A
:100A18001EFF2FE11EFF2FE10100A0E31EFF2FE1C3
:100A28000100A0E31EFF2FE11EFF2FE11EFF2FE1B3
:100A3800F0472DE9E8509FE50060A0E1000095E54A
:100A48000290A0E10380A0E10170A0E1F0FFFFEBBC
:100A5800D0309FE5004093E5483194E5000053E32A
:100A6800533F8402042093E5483184051F0052E374
:100A7800010082D20F0000DAAC309FE5000053E39A
:100A88002300000A190EA0E300F020E3003050E232
:100A98001F00000A0010A0E30100A0E30120A0E16C
:100AA80048C194E5041083E500C083E5483184E536
:100AB800881183E58C1183E5000056E30700001ACE
:100AC800022082E2040083E5000095E5027183E7D5
:100AD800D5FFFFEB0000A0E3F047BDE81EFF2FE1C4
:100AE8000110A0E302E183E088908EE588C193E5D8
:100AF8001112A0E101C08CE188C183E508818EE56F
:100B0800020056E38CC1930501108C018C118305FA
:100B1800EAFFFFEA000095E5C3FFFFEB0000E0E312
:100B2800ECFFFFEA38040020680B00080000000012
:100B3800FEFFFFEA0000000000C09FE51CFF2FE158
:100B480099020008000000000000000000000000FA
:100B5800010203040607080900000000010203045B
:040B68001000002059
:100B6C000DC0A0E1F8DF2DE904B04CE228D04BE237
:080B7C00F06F9DE81EFF2FE160
:100B84000DC0A0E1F8DF2DE904B04CE228D04BE21F
:080B9400F06F9DE81EFF2FE148
:040B9C000000000055
:080BA000E4F5FF7F01000000F5
:100BA8000000000000127A00100000200000000081
:100BB80000000000FC02002064030020CC03002099
:100BC800000000000000000000000000000000001D
:100BD800000000000000000000000000000000000D
:100BE80000000000000000000000000000000000FD
:100BF80000000000000000000000000000000000ED
:100C080000000000000000000000000000000000DC
:100C180000000000000000000000000000000000CC
:100C280000000000000000000000000000000000BC
:100C380000000000000000000000000000000000AC
:100C4800000000000000000000000000000000009C
:100C5800000000000000000001000000000000008B
:100C68000E33CDAB34126DE6ECDE05000B00000050
:100C7800000000000000000000000000000000006C
:100C8800000000000000000000000000000000005C
:100C9800000000000000000000000000000000004C
:100CA800000000000000000000000000000000003C
:0C0FD80000000000000000006804002081
:040FE40008010008F8
:040FE800C800000835
:040FEC000000000001
:040FF000EC07000802
:04000005080005CD1D
:00000001FF
